:10000000F6EF00F080B403D080A601D00C8080A869
:1000100001D00C8015EF01F080B403D080B601D080
:100020008A8480A403D080A601D08A9424EF01F0B2
:100030008A948A900CA201D08A7280A201D00C907E
:1000400027EF01F0010E0D26000E0E220D500508BF
:1000500005E10E5203E10C720E6A0D6A2EEF01F0FB
:100060001850016A175C03E217C000F00CD0006A58
:10007000080E196E173600361850005CD8B0006EA6
:100080000136192EF7D71200200E12A8300E136E6B
:1000900011C000F011AE08D0001E002A00C011F0FF
:1000A0002D0E136E128E1280015011C017F0640EC7
:1000B000186ED6DF00C011F0300E0124146E11C08E
:1000C00017F00A0E186ECCDF300E0024166E300EBC
:1000D0000124156E13C000F0300E145C04E012828F
:1000E00012BE128412D013C014F0200E136E300E04
:1000F000155C04E0128012BE128207D0D8A41280D0
:1001000004E114C015F0200E146E12B405D012B222
:1001100008D012B00BD00FD0135004009EA8FDD70A
:10012000AD6E145004009EA8FDD7AD6E15500400AE
:100130009EA8FDD7AD6E165004009EA8FDD7AD6EEB
:1001400012000F50090810E3240E04009EA8FDD7EA
:10015000AD6E300E04009EA8FDD7AD6E0FC011F03D
:10016000180E126E91DF0AD0240E04009EA8FDD74F
:10017000AD6E0FC011F0180E126E86DF230E040054
:100180009EA8FDD7AD6E1050090810E3300E040094
:100190009EA8FDD7AD6E10C011F0180E126E74DF60
:1001A000400E04009EA8FDD7AD6E1ED0240E0400A4
:1001B0009EA8FDD7AD6E0FC011F0180E126E64DF51
:1001C000230E04009EA8FDD7AD6E10C011F0180ECE
:1001D000126E5ADF730E04009EA8FDD7AD6E400E5E
:1001E00004009EA8FDD7AD6E33EF01F0F86AD09EF3
:1001F000B896190EAF6EA60EAC6E900EAB6EC150D7
:10020000C00B0F09C16E070EB46E0B6A1A0E0A6E90
:100210000F0E1B6E620E1A6E1D6A1C6A046A056A56
:100220001F0E926E000E936EEDD680A005D080B2A8
:1002300003D00CB001D08A8080A202D08A908A9428
:1002400081A002D00CA0E8D60CA002D0F1D601D03B
:100250008A92210E006E002EFED7F4D680CF0FF0CA
:0A02600081CF10F06ED7E0D7030045
:020000040030CA
:0E00000000C11E1E008781000FC00FE00F40E0
:00000001FF
;PIC18F4620
;CRC=BFAE  CREATED="25-jul-15 00:24"
