:1000000014C1000040C100003EC100003CC100001E
:100010003AC1000038C1000036C1000034C1000000
:1000200032C1000030C100002EC100002CC1000010
:100030002AC1000028C1000026C1000024C1000020
:1000400022C1000020C100001EC100001CC1000030
:100050001AC1000018C1000016C10000F4C300005E
:1000600012C10000BAC300008FC300000CC1000021
:100070000AC1000008C1000006C1000004C1000060
:1000800002C1000000C10000FEC00000FCC0000072
:10009000FAC00000F8C00000F6C00000F4C0000084
:1000A000F2C00000F0C00000EEC00000ECC0000094
:1000B000EAC00000E8C00000E6C00000E4C00000A4
:1000C000E2C00000E0C00000DEC00000DCC00000B4
:1000D000DAC00000D8C00000D6C00000D4C00000C4
:1000E000D2C0000080028302720276027C02BA0251
:1000F00087028B029102950299029F02A302A70236
:10010000BA02AD02B102B5020000210024002700AE
:100110002A002D0030003300010100000401070116
:100120000A0100002200250028002B002E003100CB
:10013000340002010000050108010B01000020004D
:100140002300260029002C002F00320000010000AF
:10015000030106010901050505050705080808084A
:10016000020202020A0A080804040404010101014F
:10017000010101010303030303030303040707074A
:100180000C0C0C0C0C0C0C0C0202020206060606EF
:10019000060606060B0B0B0B0B0B0B0B01021020BC
:1001A00020080810204010204080020102010804AD
:1001B0000201010204081020408080402010080441
:1001C000020180040201804020100804020108049A
:1001D00002010102040810204080010204081020DE
:1001E000408000000A0B02090C0D0E0807030401F1
:1001F00000000000000000000000000000000000FF
:1002000000000000000000000000000000001211CB
:1002100010000000000000000000000000000000CE
:1002200000000000000000001B0611241FBECFEFDD
:10023000D1E2DEBFCDBF00E00CBF12E0A0E0B2E033
:10024000E0EFFCE000E00BBF02C007900D92A83188
:10025000B107D9F722E0A8E1B2E001C01D92A43DA8
:10026000B207E1F711E0C5E1D1E000E005C0219758
:100270000109802FFE012ED5C431D10780E0080787
:10028000B1F72BD333C5BCCECF92DF92EF92FF9262
:100290000F931F93CF93DF936C017A018B01C0E022
:1002A000D0E0CE15DF0589F0D8016D918D01D60122
:1002B000ED91FC910190F081E02DC6011995892BFB
:1002C00011F47E0102C02196ECCFC701DF91CF91DE
:1002D0001F910F91FF90EF90DF90CF900895FC0158
:1002E000918D828D981761F0828DDF01A80FB11D6D
:1002F0005D968C91928D9F5F9F73928F90E0089591
:100300008FEF9FEF0895FC01918D828D981731F04A
:10031000828DE80FF11D858D90E008958FEF9FEF9E
:100320000895FC01918D228D892F90E0805C9F4F74
:10033000821B91098F739927089587E392E0F1DF7B
:1003400021E0892B09F420E0822F0895FC01848D9F
:10035000DF01A80FB11DA35ABF4F2C91848D90E0EF
:1003600001968F739927848FA689B7892C93A089CA
:10037000B1898C9180648C93938D848D981306C081
:100380000288F389E02D80818F7D80830895EF922C
:10039000FF920F931F93CF93DF93EC0181E0888F3F
:1003A0009B8D8C8D981305C0E889F989808185FD26
:1003B00023C0F62E0B8D10E00F5F1F4F0F73112718
:1003C000E02E8C8DE8120BC00FB607FCFACFE8893F
:1003D000F989808185FFF5CFCE01B8DFF2CF8B8D13
:1003E000FE01E80FF11DE35AFF4FF0820B8FEA89FF
:1003F000FB898081806207C0EE89FF896083E8897C
:10040000F98980818064808381E090E0DF91CF91E1
:100410001F910F91FF90EF900895CF93DF93EC0120
:10042000888D8823C1F0EA89FB89808185FD05C01C
:10043000A889B9898C9186FD0EC00FB607FCF5CF4F
:10044000808185FFF2CFA889B9898C9185FFEDCF96
:10045000CE017CDFE8CFDF91CF91089580E090E07E
:10046000892B19F06ADF811125C080E090E0892B8B
:1004700041F080E090E0892B21F00E940000811182
:100480001CC080E090E0892B41F080E090E0892B57
:1004900021F00E940000811113C080E090E0892BC0
:1004A000A1F080E090E0892B81F00E940000811192
:1004B0000AC008950E940000D8CF0E940000E1CF3A
:1004C0000E940000EACF0C940000089590E0FC0127
:1004D0003197E231F10508F04DC08827EE58FF4F03
:1004E0008F4FF8C3809180008F7703C08091800088
:1004F0008F7D80938000089580918000877FF9CF61
:1005000084B58F7702C084B58F7D84BD08958091B6
:10051000B0008F7703C08091B0008F7D8093B000D2
:100520000895809190008F7707C0809190008F7D13
:1005300003C080919000877F809390000895809100
:10054000A0008F7707C08091A0008F7D03C08091AD
:10055000A000877F8093A0000895809120018F776D
:1005600007C0809120018F7D03C080912001877F8B
:10057000809320010895CF93DF93282F30E0F90175
:10058000EE51FE4F8491F901E456FE4FD491F901EA
:10059000EA5AFE4FC491CC2389F0811197DFEC2FEA
:1005A000F0E0EE0FFF1FE45CFE4FA591B491EC91DB
:1005B000ED2381E090E021F480E002C080E090E053
:1005C000DF91CF9108951F93CF93DF93282F30E0D1
:1005D000F901EE51FE4F8491F901E456FE4FD4919A
:1005E000F901EA5AFE4FC491CC23C1F0162F8111B4
:1005F0006DDFEC2FF0E0EE0FFF1FEE5DFE4FA591DB
:10060000B4918FB7F894111105C09C91ED2FE0952E
:10061000E92302C0EC91ED2BEC938FBFDF91CF91DA
:100620001F910895CF93DF9390E0FC01E456FE4FB5
:100630002491FC01EA5AFE4F8491882361F190E0F5
:10064000880F991FFC01E85FFE4FC591D491FC0112
:10065000EE5DFE4FA591B491611109C09FB7F8946A
:100660008881209582238883EC912E230BC06230F1
:1006700061F49FB7F8943881822F80958323888313
:10068000EC912E2B2C939FBF06C08FB7F894E88176
:100690002E2B28838FBFDF91CF9108953FB7F89419
:1006A00080911D0290911E02A0911F02B091200224
:1006B00026B5A89B05C02F3F19F00196A11DB11DBD
:1006C0003FBFBA2FA92F982F8827820F911DA11DF8
:1006D000B11DBC01CD0142E0660F771F881F991F35
:1006E0004A95D1F70895009761F0FC010190002030
:1006F000E9F73197AF01481B590BBC0187E392E042
:10070000C3CD80E090E008958F929F92AF92BF9208
:100710000F931F93CF93DF93CDB7DEB7A1970FB69B
:10072000F894DEBF0FBECDBF19A2423008F44AE0F4
:100730008E010F5D1F4F842E912CA12CB12CA50191
:100740009401A6D2E62FB901CA0101501109EA307D
:1007500014F4E05D01C0E95CD801EC93232B242B59
:10076000252B69F7C801BFDFA1960FB6F894DEBF4D
:100770000FBECDBFDF91CF911F910F91BF90AF9072
:100780009F908F900895AED21F920F920FB60F9246
:1007900011240BB60F922F933F934F935F936F9358
:1007A0007F938F939F93AF93BF93EF93FF9387E3D1
:1007B00092E0CCDDFF91EF91BF91AF919F918F912E
:1007C0007F916F915F914F913F912F910F900BBE51
:1007D0000F900FBE0F901F9018951F920F920FB69B
:1007E0000F9211240BB60F922F938F939F93EF9339
:1007F000FF93E0914702F09148028081E0914D0221
:10080000F0914E0282FD12C09081809150028F5F64
:100810008F7320915102821751F0E0915002F0E065
:10082000E95CFD4F958F8093500201C08081FF915C
:10083000EF919F918F912F910F900BBE0F900FBE54
:100840000F901F9018951F920F920FB60F921124C0
:100850002F933F938F939F93AF93BF9380911902F0
:1008600090911A02A0911B02B0911C0230911802C3
:1008700023E0230F2D3720F40196A11DB11D05C0E3
:1008800026E8230F0296A11DB11D20931802809324
:10089000190290931A02A0931B02B0931C0280913C
:1008A0001D0290911E02A0911F02B091200201969C
:1008B000A11DB11D80931D0290931E02A0931F02E3
:1008C000B0932002BF91AF919F918F913F912F9153
:1008D0000F900FBE0F901F901895789484B582608A
:1008E00084BD84B5816084BD85B5826085BD85B5D4
:1008F000816085BD80916E00816080936E00109252
:1009000081008091810082608093810080918100CC
:10091000816080938100809180008160809380005D
:100920008091B10084608093B1008091B0008160BB
:100930008093B000809191008260809391008091BB
:1009400091008160809391008091900081608093FC
:1009500090008091A10082608093A1008091A1000D
:1009600081608093A1008091A00081608093A000AD
:100970008091210182608093210180912101816019
:1009800080932101809120018160809320018091DA
:100990007A00846080937A0080917A0082608093EC
:1009A0007A0080917A00816080937A0080917A0049
:1009B000806880937A001092C100E0914702F09124
:1009C000480282E08083E0914302F0914402108269
:1009D000E0914502F09146028FEC808310924F0225
:1009E000E0914B02F0914C0286E08083E091490255
:1009F000F0914A02808180618083E0914902F09108
:100A00004A02808188608083E0914902F0914A0225
:100A1000808180688083E0914902F0914A02808160
:100A20008F7D808361E085E2FDDD61E084E2FADDB7
:100A300061E083E2F7DD60E086E1F4DD60E087E11C
:100A4000F1DD60E088E1EEDD60E089E1EBDD60E0B2
:100A50008AE1E8DDC1E086E18EDD8C01909336020B
:100A60008093350287E187DD7C0190933402809387
:100A7000330288E180DD5C01909332028093310281
:100A800089E179DD6C019093300280932F028AE135
:100A900072DD3C0190932E0280932D0285E26BDD86
:100AA0004C0190932C0280932B0284E264DD90939E
:100AB0002A028093290283E25EDD909328028093CC
:100AC0002702A114B10429F4C114D10411F0C09378
:100AD0002602672819F0C093260213C0012B89F063
:100AE0008091260281110DC0E114F10431F060E023
:100AF00085E269DD60E083E202C061E085E263DDFA
:100B000003C0E114F10499F78A94892879F480915B
:100B1000260281110BC0AB2821F4CD2839F461E005
:100B200003C0CD2819F060E083E24DDD80912602FC
:100B300060E0882319F183E246DD60E085E243DD71
:100B4000809123028823A9F0C0902102D090220234
:100B500061E0C114D10409F460E084E234DD81E095
:100B600090E0CD2811F080E090E0909322028093F5
:100B70002102EF2829F01092260202C084E223DD30
:100B80008DDD4B015C0184E6C82ED12CE12CF12CCB
:100B900085DDDC01CB0188199909AA09BB09883ECA
:100BA0009340A105B10558F081E0C81AD108E108C9
:100BB000F10828EE820E23E0921EA11CB11CC11484
:100BC000D104E104F10421F78091240290912502DF
:100BD00001969093250280932402059749F4809111
:100BE00023028C2780932302109225021092240264
:100BF00080E192E078DD80B18A3018F482E192E001
:100C000072DD60B170E080E090E04AE07DDD84E17B
:100C100092E069DD86B18A3018F482E192E063DD0A
:100C200066B170E080E090E04AE06EDD86E192E03F
:100C30005ADD14DC10CFE7E3F2E01382128288EE73
:100C400093E0A0E0B0E084839583A683B78384E03B
:100C500092E09183808385EC90E09587848784EC93
:100C600090E09787868780EC90E0918B808B81EC79
:100C700090E0938B828B82EC90E0958B848B86EC5A
:100C800090E0978B868B118E128E138E148E0895A2
:100C9000A1E21A2EAA1BBB1BFD010DC0AA1FBB1F80
:100CA000EE1FFF1FA217B307E407F50720F0A21BF2
:100CB000B30BE40BF50B661F771F881F991F1A945F
:100CC00069F760957095809590959B01AC01BD0189
:100CD000CF010895EE0FFF1F881F8BBF0790F6917D
:100CE000E02D199481E090E0F89400C0F894FFCFD3
:100CF00000000000C701440191016F0183010D0252
:080D0000240030002500400032
:00000001FF
